{
  "_format": "hh-sol-artifact-1",
  "contractName": "CertificateNFT",
  "sourceName": "contracts/CertificateNFT.sol",
  "abi": [
    {
      "inputs": [],
      "stateMutability": "nonpayable",
      "type": "constructor"
    },
    {
      "inputs": [
        {
          "internalType": "address",
          "name": "sender",
          "type": "address"
        },
        {
          "internalType": "uint256",
          "name": "tokenId",
          "type": "uint256"
        },
        {
          "internalType": "address",
          "name": "owner",
          "type": "address"
        }
      ],
      "name": "ERC721IncorrectOwner",
      "type": "error"
    },
    {
      "inputs": [
        {
          "internalType": "address",
          "name": "operator",
          "type": "address"
        },
        {
          "internalType": "uint256",
          "name": "tokenId",
          "type": "uint256"
        }
      ],
      "name": "ERC721InsufficientApproval",
      "type": "error"
    },
    {
      "inputs": [
        {
          "internalType": "address",
          "name": "approver",
          "type": "address"
        }
      ],
      "name": "ERC721InvalidApprover",
      "type": "error"
    },
    {
      "inputs": [
        {
          "internalType": "address",
          "name": "operator",
          "type": "address"
        }
      ],
      "name": "ERC721InvalidOperator",
      "type": "error"
    },
    {
      "inputs": [
        {
          "internalType": "address",
          "name": "owner",
          "type": "address"
        }
      ],
      "name": "ERC721InvalidOwner",
      "type": "error"
    },
    {
      "inputs": [
        {
          "internalType": "address",
          "name": "receiver",
          "type": "address"
        }
      ],
      "name": "ERC721InvalidReceiver",
      "type": "error"
    },
    {
      "inputs": [
        {
          "internalType": "address",
          "name": "sender",
          "type": "address"
        }
      ],
      "name": "ERC721InvalidSender",
      "type": "error"
    },
    {
      "inputs": [
        {
          "internalType": "uint256",
          "name": "tokenId",
          "type": "uint256"
        }
      ],
      "name": "ERC721NonexistentToken",
      "type": "error"
    },
    {
      "inputs": [
        {
          "internalType": "address",
          "name": "owner",
          "type": "address"
        }
      ],
      "name": "OwnableInvalidOwner",
      "type": "error"
    },
    {
      "inputs": [
        {
          "internalType": "address",
          "name": "account",
          "type": "address"
        }
      ],
      "name": "OwnableUnauthorizedAccount",
      "type": "error"
    },
    {
      "anonymous": false,
      "inputs": [
        {
          "indexed": true,
          "internalType": "address",
          "name": "owner",
          "type": "address"
        },
        {
          "indexed": true,
          "internalType": "address",
          "name": "approved",
          "type": "address"
        },
        {
          "indexed": true,
          "internalType": "uint256",
          "name": "tokenId",
          "type": "uint256"
        }
      ],
      "name": "Approval",
      "type": "event"
    },
    {
      "anonymous": false,
      "inputs": [
        {
          "indexed": true,
          "internalType": "address",
          "name": "owner",
          "type": "address"
        },
        {
          "indexed": true,
          "internalType": "address",
          "name": "operator",
          "type": "address"
        },
        {
          "indexed": false,
          "internalType": "bool",
          "name": "approved",
          "type": "bool"
        }
      ],
      "name": "ApprovalForAll",
      "type": "event"
    },
    {
      "anonymous": false,
      "inputs": [
        {
          "indexed": false,
          "internalType": "uint256",
          "name": "_fromTokenId",
          "type": "uint256"
        },
        {
          "indexed": false,
          "internalType": "uint256",
          "name": "_toTokenId",
          "type": "uint256"
        }
      ],
      "name": "BatchMetadataUpdate",
      "type": "event"
    },
    {
      "anonymous": false,
      "inputs": [
        {
          "indexed": false,
          "internalType": "uint256",
          "name": "_tokenId",
          "type": "uint256"
        }
      ],
      "name": "MetadataUpdate",
      "type": "event"
    },
    {
      "anonymous": false,
      "inputs": [
        {
          "indexed": true,
          "internalType": "address",
          "name": "previousOwner",
          "type": "address"
        },
        {
          "indexed": true,
          "internalType": "address",
          "name": "newOwner",
          "type": "address"
        }
      ],
      "name": "OwnershipTransferred",
      "type": "event"
    },
    {
      "anonymous": false,
      "inputs": [
        {
          "indexed": true,
          "internalType": "address",
          "name": "from",
          "type": "address"
        },
        {
          "indexed": true,
          "internalType": "address",
          "name": "to",
          "type": "address"
        },
        {
          "indexed": true,
          "internalType": "uint256",
          "name": "tokenId",
          "type": "uint256"
        }
      ],
      "name": "Transfer",
      "type": "event"
    },
    {
      "inputs": [
        {
          "internalType": "address",
          "name": "to",
          "type": "address"
        },
        {
          "internalType": "uint256",
          "name": "tokenId",
          "type": "uint256"
        }
      ],
      "name": "approve",
      "outputs": [],
      "stateMutability": "nonpayable",
      "type": "function"
    },
    {
      "inputs": [
        {
          "internalType": "address",
          "name": "owner",
          "type": "address"
        }
      ],
      "name": "balanceOf",
      "outputs": [
        {
          "internalType": "uint256",
          "name": "",
          "type": "uint256"
        }
      ],
      "stateMutability": "view",
      "type": "function"
    },
    {
      "inputs": [
        {
          "internalType": "uint256",
          "name": "tokenId",
          "type": "uint256"
        }
      ],
      "name": "getApproved",
      "outputs": [
        {
          "internalType": "address",
          "name": "",
          "type": "address"
        }
      ],
      "stateMutability": "view",
      "type": "function"
    },
    {
      "inputs": [
        {
          "internalType": "address",
          "name": "owner",
          "type": "address"
        },
        {
          "internalType": "address",
          "name": "operator",
          "type": "address"
        }
      ],
      "name": "isApprovedForAll",
      "outputs": [
        {
          "internalType": "bool",
          "name": "",
          "type": "bool"
        }
      ],
      "stateMutability": "view",
      "type": "function"
    },
    {
      "inputs": [
        {
          "internalType": "address",
          "name": "recipient",
          "type": "address"
        },
        {
          "internalType": "string",
          "name": "tokenURI",
          "type": "string"
        }
      ],
      "name": "mintCertificate",
      "outputs": [
        {
          "internalType": "uint256",
          "name": "",
          "type": "uint256"
        }
      ],
      "stateMutability": "nonpayable",
      "type": "function"
    },
    {
      "inputs": [],
      "name": "name",
      "outputs": [
        {
          "internalType": "string",
          "name": "",
          "type": "string"
        }
      ],
      "stateMutability": "view",
      "type": "function"
    },
    {
      "inputs": [],
      "name": "owner",
      "outputs": [
        {
          "internalType": "address",
          "name": "",
          "type": "address"
        }
      ],
      "stateMutability": "view",
      "type": "function"
    },
    {
      "inputs": [
        {
          "internalType": "uint256",
          "name": "tokenId",
          "type": "uint256"
        }
      ],
      "name": "ownerOf",
      "outputs": [
        {
          "internalType": "address",
          "name": "",
          "type": "address"
        }
      ],
      "stateMutability": "view",
      "type": "function"
    },
    {
      "inputs": [],
      "name": "renounceOwnership",
      "outputs": [],
      "stateMutability": "nonpayable",
      "type": "function"
    },
    {
      "inputs": [
        {
          "internalType": "uint256",
          "name": "tokenId",
          "type": "uint256"
        }
      ],
      "name": "revokeCertificate",
      "outputs": [],
      "stateMutability": "nonpayable",
      "type": "function"
    },
    {
      "inputs": [
        {
          "internalType": "address",
          "name": "from",
          "type": "address"
        },
        {
          "internalType": "address",
          "name": "to",
          "type": "address"
        },
        {
          "internalType": "uint256",
          "name": "tokenId",
          "type": "uint256"
        }
      ],
      "name": "safeTransferFrom",
      "outputs": [],
      "stateMutability": "nonpayable",
      "type": "function"
    },
    {
      "inputs": [
        {
          "internalType": "address",
          "name": "from",
          "type": "address"
        },
        {
          "internalType": "address",
          "name": "to",
          "type": "address"
        },
        {
          "internalType": "uint256",
          "name": "tokenId",
          "type": "uint256"
        },
        {
          "internalType": "bytes",
          "name": "data",
          "type": "bytes"
        }
      ],
      "name": "safeTransferFrom",
      "outputs": [],
      "stateMutability": "nonpayable",
      "type": "function"
    },
    {
      "inputs": [
        {
          "internalType": "address",
          "name": "operator",
          "type": "address"
        },
        {
          "internalType": "bool",
          "name": "approved",
          "type": "bool"
        }
      ],
      "name": "setApprovalForAll",
      "outputs": [],
      "stateMutability": "nonpayable",
      "type": "function"
    },
    {
      "inputs": [
        {
          "internalType": "bytes4",
          "name": "interfaceId",
          "type": "bytes4"
        }
      ],
      "name": "supportsInterface",
      "outputs": [
        {
          "internalType": "bool",
          "name": "",
          "type": "bool"
        }
      ],
      "stateMutability": "view",
      "type": "function"
    },
    {
      "inputs": [],
      "name": "symbol",
      "outputs": [
        {
          "internalType": "string",
          "name": "",
          "type": "string"
        }
      ],
      "stateMutability": "view",
      "type": "function"
    },
    {
      "inputs": [],
      "name": "tokenCounter",
      "outputs": [
        {
          "internalType": "uint256",
          "name": "",
          "type": "uint256"
        }
      ],
      "stateMutability": "view",
      "type": "function"
    },
    {
      "inputs": [
        {
          "internalType": "uint256",
          "name": "tokenId",
          "type": "uint256"
        }
      ],
      "name": "tokenURI",
      "outputs": [
        {
          "internalType": "string",
          "name": "",
          "type": "string"
        }
      ],
      "stateMutability": "view",
      "type": "function"
    },
    {
      "inputs": [
        {
          "internalType": "address",
          "name": "from",
          "type": "address"
        },
        {
          "internalType": "address",
          "name": "to",
          "type": "address"
        },
        {
          "internalType": "uint256",
          "name": "tokenId",
          "type": "uint256"
        }
      ],
      "name": "transferFrom",
      "outputs": [],
      "stateMutability": "nonpayable",
      "type": "function"
    },
    {
      "inputs": [
        {
          "internalType": "address",
          "name": "newOwner",
          "type": "address"
        }
      ],
      "name": "transferOwnership",
      "outputs": [],
      "stateMutability": "nonpayable",
      "type": "function"
    }
  ],
  "bytecode": "0x60806040523480156200001157600080fd5b50336040518060400160405280600f81526020017f524d4954436572746966696361746500000000000000000000000000000000008152506040518060400160405280600581526020017f524d49544300000000000000000000000000000000000000000000000000000081525081600090816200009091906200047a565b508060019081620000a291906200047a565b505050600073ffffffffffffffffffffffffffffffffffffffff168173ffffffffffffffffffffffffffffffffffffffff16036200011a5760006040517f1e4fbdf7000000000000000000000000000000000000000000000000000000008152600401620001119190620005a6565b60405180910390fd5b6200012b816200013a60201b60201c565b506000600881905550620005c3565b6000600760009054906101000a900473ffffffffffffffffffffffffffffffffffffffff16905081600760006101000a81548173ffffffffffffffffffffffffffffffffffffffff021916908373ffffffffffffffffffffffffffffffffffffffff1602179055508173ffffffffffffffffffffffffffffffffffffffff168173ffffffffffffffffffffffffffffffffffffffff167f8be0079c531659141344cd1fd0a4f28419497f9722a3daafe3b4186f6b6457e060405160405180910390a35050565b600081519050919050565b7f4e487b7100000000000000000000000000000000000000000000000000000000600052604160045260246000fd5b7f4e487b7100000000000000000000000000000000000000000000000000000000600052602260045260246000fd5b600060028204905060018216806200028257607f821691505b6020821081036200029857620002976200023a565b5b50919050565b60008190508160005260206000209050919050565b60006020601f8301049050919050565b600082821b905092915050565b600060088302620003027fffffffffffffffffffffffffffffffffffffffffffffffffffffffffffffffff82620002c3565b6200030e8683620002c3565b95508019841693508086168417925050509392505050565b6000819050919050565b6000819050919050565b60006200035b620003556200034f8462000326565b62000330565b62000326565b9050919050565b6000819050919050565b62000377836200033a565b6200038f620003868262000362565b848454620002d0565b825550505050565b600090565b620003a662000397565b620003b38184846200036c565b505050565b5b81811015620003db57620003cf6000826200039c565b600181019050620003b9565b5050565b601f8211156200042a57620003f4816200029e565b620003ff84620002b3565b810160208510156200040f578190505b620004276200041e85620002b3565b830182620003b8565b50505b505050565b600082821c905092915050565b60006200044f600019846008026200042f565b1980831691505092915050565b60006200046a83836200043c565b9150826002028217905092915050565b620004858262000200565b67ffffffffffffffff811115620004a157620004a06200020b565b5b620004ad825462000269565b620004ba828285620003df565b600060209050601f831160018114620004f25760008415620004dd578287015190505b620004e985826200045c565b86555062000559565b601f19841662000502866200029e565b60005b828110156200052c5784890151825560018201915060208501945060208101905062000505565b868310156200054c578489015162000548601f8916826200043c565b8355505b6001600288020188555050505b505050505050565b600073ffffffffffffffffffffffffffffffffffffffff82169050919050565b60006200058e8262000561565b9050919050565b620005a08162000581565b82525050565b6000602082019050620005bd600083018462000595565b92915050565b6128ec80620005d36000396000f3fe608060405234801561001057600080fd5b50600436106101215760003560e01c806370a08231116100ad578063b88d4fde11610071578063b88d4fde14610306578063c87b56dd14610322578063d082e38114610352578063e985e9c514610370578063f2fde38b146103a057610121565b806370a0823114610274578063715018a6146102a45780638da5cb5b146102ae57806395d89b41146102cc578063a22cb465146102ea57610121565b8063081812fc116100f4578063081812fc146101c0578063095ea7b3146101f057806323b872dd1461020c57806342842e0e146102285780636352211e1461024457610121565b806301ffc9a71461012657806306f5497e1461015657806306fdde03146101725780630712249f14610190575b600080fd5b610140600480360381019061013b9190611c80565b6103bc565b60405161014d9190611cc8565b60405180910390f35b610170600480360381019061016b9190611d19565b61041d565b005b61017a610431565b6040516101879190611dd6565b60405180910390f35b6101aa60048036038101906101a59190611f8b565b6104c3565b6040516101b79190611ff6565b60405180910390f35b6101da60048036038101906101d59190611d19565b6105bf565b6040516101e79190612020565b60405180910390f35b61020a6004803603810190610205919061203b565b6105db565b005b6102266004803603810190610221919061207b565b6105f1565b005b610242600480360381019061023d919061207b565b6106f3565b005b61025e60048036038101906102599190611d19565b610713565b60405161026b9190612020565b60405180910390f35b61028e600480360381019061028991906120ce565b610725565b60405161029b9190611ff6565b60405180910390f35b6102ac6107df565b005b6102b66107f3565b6040516102c39190612020565b60405180910390f35b6102d461081d565b6040516102e19190611dd6565b60405180910390f35b61030460048036038101906102ff9190612127565b6108af565b005b610320600480360381019061031b9190612208565b6108c5565b005b61033c60048036038101906103379190611d19565b6108ea565b6040516103499190611dd6565b60405180910390f35b61035a6109fd565b6040516103679190611ff6565b60405180910390f35b61038a6004803603810190610385919061228b565b610a03565b6040516103979190611cc8565b60405180910390f35b6103ba60048036038101906103b591906120ce565b610a97565b005b6000634906490660e01b7bffffffffffffffffffffffffffffffffffffffffffffffffffffffff1916827bffffffffffffffffffffffffffffffffffffffffffffffffffffffff19161480610416575061041582610b1d565b5b9050919050565b610425610bff565b61042e81610c86565b50565b606060008054610440906122fa565b80601f016020809104026020016040519081016040528092919081815260200182805461046c906122fa565b80156104b95780601f1061048e576101008083540402835291602001916104b9565b820191906000526020600020905b81548152906001019060200180831161049c57829003601f168201915b5050505050905090565b60006104cd610bff565b600073ffffffffffffffffffffffffffffffffffffffff168373ffffffffffffffffffffffffffffffffffffffff160361053c576040517f08c379a000000000000000000000000000000000000000000000000000000000815260040161053390612377565b60405180910390fd5b6000825111610580576040517f08c379a0000000000000000000000000000000000000000000000000000000008152600401610577906123e3565b60405180910390fd5b600060085490506105918482610d0c565b61059b8184610d2a565b6001600860008282546105ae9190612432565b925050819055508091505092915050565b60006105ca82610d86565b506105d482610e0e565b9050919050565b6105ed82826105e8610e4b565b610e53565b5050565b600073ffffffffffffffffffffffffffffffffffffffff168273ffffffffffffffffffffffffffffffffffffffff16036106635760006040517f64a0ae9200000000000000000000000000000000000000000000000000000000815260040161065a9190612020565b60405180910390fd5b60006106778383610672610e4b565b610e65565b90508373ffffffffffffffffffffffffffffffffffffffff168173ffffffffffffffffffffffffffffffffffffffff16146106ed578382826040517f64283d7b0000000000000000000000000000000000000000000000000000000081526004016106e493929190612466565b60405180910390fd5b50505050565b61070e838383604051806020016040528060008152506108c5565b505050565b600061071e82610d86565b9050919050565b60008073ffffffffffffffffffffffffffffffffffffffff168273ffffffffffffffffffffffffffffffffffffffff16036107985760006040517f89c62b6400000000000000000000000000000000000000000000000000000000815260040161078f9190612020565b60405180910390fd5b600360008373ffffffffffffffffffffffffffffffffffffffff1673ffffffffffffffffffffffffffffffffffffffff168152602001908152602001600020549050919050565b6107e7610bff565b6107f1600061107f565b565b6000600760009054906101000a900473ffffffffffffffffffffffffffffffffffffffff16905090565b60606001805461082c906122fa565b80601f0160208091040260200160405190810160405280929190818152602001828054610858906122fa565b80156108a55780601f1061087a576101008083540402835291602001916108a5565b820191906000526020600020905b81548152906001019060200180831161088857829003601f168201915b5050505050905090565b6108c16108ba610e4b565b8383611145565b5050565b6108d08484846105f1565b6108e46108db610e4b565b858585856112b4565b50505050565b60606108f582610d86565b506000600660008481526020019081526020016000208054610916906122fa565b80601f0160208091040260200160405190810160405280929190818152602001828054610942906122fa565b801561098f5780601f106109645761010080835404028352916020019161098f565b820191906000526020600020905b81548152906001019060200180831161097257829003601f168201915b5050505050905060006109a0611465565b905060008151036109b55781925050506109f8565b6000825111156109ea5780826040516020016109d29291906124d9565b604051602081830303815290604052925050506109f8565b6109f38461147c565b925050505b919050565b60085481565b6000600560008473ffffffffffffffffffffffffffffffffffffffff1673ffffffffffffffffffffffffffffffffffffffff16815260200190815260200160002060008373ffffffffffffffffffffffffffffffffffffffff1673ffffffffffffffffffffffffffffffffffffffff16815260200190815260200160002060009054906101000a900460ff16905092915050565b610a9f610bff565b600073ffffffffffffffffffffffffffffffffffffffff168173ffffffffffffffffffffffffffffffffffffffff1603610b115760006040517f1e4fbdf7000000000000000000000000000000000000000000000000000000008152600401610b089190612020565b60405180910390fd5b610b1a8161107f565b50565b60007f80ac58cd000000000000000000000000000000000000000000000000000000007bffffffffffffffffffffffffffffffffffffffffffffffffffffffff1916827bffffffffffffffffffffffffffffffffffffffffffffffffffffffff19161480610be857507f5b5e139f000000000000000000000000000000000000000000000000000000007bffffffffffffffffffffffffffffffffffffffffffffffffffffffff1916827bffffffffffffffffffffffffffffffffffffffffffffffffffffffff1916145b80610bf85750610bf7826114e5565b5b9050919050565b610c07610e4b565b73ffffffffffffffffffffffffffffffffffffffff16610c256107f3565b73ffffffffffffffffffffffffffffffffffffffff1614610c8457610c48610e4b565b6040517f118cdaa7000000000000000000000000000000000000000000000000000000008152600401610c7b9190612020565b60405180910390fd5b565b6000610c956000836000610e65565b9050600073ffffffffffffffffffffffffffffffffffffffff168173ffffffffffffffffffffffffffffffffffffffff1603610d0857816040517f7e273289000000000000000000000000000000000000000000000000000000008152600401610cff9190611ff6565b60405180910390fd5b5050565b610d2682826040518060200160405280600081525061154f565b5050565b80600660008481526020019081526020016000209081610d4a91906126a9565b507ff8e1a15aba9398e019f0b49df1a4fde98ee17ae345cb5f6b5e2c27f5033e8ce782604051610d7a9190611ff6565b60405180910390a15050565b600080610d9283611573565b9050600073ffffffffffffffffffffffffffffffffffffffff168173ffffffffffffffffffffffffffffffffffffffff1603610e0557826040517f7e273289000000000000000000000000000000000000000000000000000000008152600401610dfc9190611ff6565b60405180910390fd5b80915050919050565b60006004600083815260200190815260200160002060009054906101000a900473ffffffffffffffffffffffffffffffffffffffff169050919050565b600033905090565b610e6083838360016115b0565b505050565b600080610e7184611573565b9050600073ffffffffffffffffffffffffffffffffffffffff168373ffffffffffffffffffffffffffffffffffffffff1614610eb357610eb2818486611775565b5b600073ffffffffffffffffffffffffffffffffffffffff168173ffffffffffffffffffffffffffffffffffffffff1614610f4457610ef56000856000806115b0565b6001600360008373ffffffffffffffffffffffffffffffffffffffff1673ffffffffffffffffffffffffffffffffffffffff168152602001908152602001600020600082825403925050819055505b600073ffffffffffffffffffffffffffffffffffffffff168573ffffffffffffffffffffffffffffffffffffffff1614610fc7576001600360008773ffffffffffffffffffffffffffffffffffffffff1673ffffffffffffffffffffffffffffffffffffffff168152602001908152602001600020600082825401925050819055505b846002600086815260200190815260200160002060006101000a81548173ffffffffffffffffffffffffffffffffffffffff021916908373ffffffffffffffffffffffffffffffffffffffff160217905550838573ffffffffffffffffffffffffffffffffffffffff168273ffffffffffffffffffffffffffffffffffffffff167fddf252ad1be2c89b69c2b068fc378daa952ba7f163c4a11628f55a4df523b3ef60405160405180910390a4809150509392505050565b6000600760009054906101000a900473ffffffffffffffffffffffffffffffffffffffff16905081600760006101000a81548173ffffffffffffffffffffffffffffffffffffffff021916908373ffffffffffffffffffffffffffffffffffffffff1602179055508173ffffffffffffffffffffffffffffffffffffffff168173ffffffffffffffffffffffffffffffffffffffff167f8be0079c531659141344cd1fd0a4f28419497f9722a3daafe3b4186f6b6457e060405160405180910390a35050565b600073ffffffffffffffffffffffffffffffffffffffff168273ffffffffffffffffffffffffffffffffffffffff16036111b657816040517f5b08ba180000000000000000000000000000000000000000000000000000000081526004016111ad9190612020565b60405180910390fd5b80600560008573ffffffffffffffffffffffffffffffffffffffff1673ffffffffffffffffffffffffffffffffffffffff16815260200190815260200160002060008473ffffffffffffffffffffffffffffffffffffffff1673ffffffffffffffffffffffffffffffffffffffff16815260200190815260200160002060006101000a81548160ff0219169083151502179055508173ffffffffffffffffffffffffffffffffffffffff168373ffffffffffffffffffffffffffffffffffffffff167f17307eab39ab6107e8899845ad3d59bd9653f200f220920489ca2b5937696c31836040516112a79190611cc8565b60405180910390a3505050565b60008373ffffffffffffffffffffffffffffffffffffffff163b111561145e578273ffffffffffffffffffffffffffffffffffffffff1663150b7a02868685856040518563ffffffff1660e01b815260040161131394939291906127d0565b6020604051808303816000875af192505050801561134f57506040513d601f19601f8201168201806040525081019061134c9190612831565b60015b6113d3573d806000811461137f576040519150601f19603f3d011682016040523d82523d6000602084013e611384565b606091505b5060008151036113cb57836040517f64a0ae920000000000000000000000000000000000000000000000000000000081526004016113c29190612020565b60405180910390fd5b805181602001fd5b63150b7a0260e01b7bffffffffffffffffffffffffffffffffffffffffffffffffffffffff1916817bffffffffffffffffffffffffffffffffffffffffffffffffffffffff19161461145c57836040517f64a0ae920000000000000000000000000000000000000000000000000000000081526004016114539190612020565b60405180910390fd5b505b5050505050565b606060405180602001604052806000815250905090565b606061148782610d86565b506000611492611465565b905060008151116114b257604051806020016040528060008152506114dd565b806114bc84611839565b6040516020016114cd9291906124d9565b6040516020818303038152906040525b915050919050565b60007f01ffc9a7000000000000000000000000000000000000000000000000000000007bffffffffffffffffffffffffffffffffffffffffffffffffffffffff1916827bffffffffffffffffffffffffffffffffffffffffffffffffffffffff1916149050919050565b6115598383611907565b61156e611564610e4b565b60008585856112b4565b505050565b60006002600083815260200190815260200160002060009054906101000a900473ffffffffffffffffffffffffffffffffffffffff169050919050565b80806115e95750600073ffffffffffffffffffffffffffffffffffffffff168273ffffffffffffffffffffffffffffffffffffffff1614155b1561171d5760006115f984610d86565b9050600073ffffffffffffffffffffffffffffffffffffffff168373ffffffffffffffffffffffffffffffffffffffff161415801561166457508273ffffffffffffffffffffffffffffffffffffffff168173ffffffffffffffffffffffffffffffffffffffff1614155b801561167757506116758184610a03565b155b156116b957826040517fa9fbf51f0000000000000000000000000000000000000000000000000000000081526004016116b09190612020565b60405180910390fd5b811561171b57838573ffffffffffffffffffffffffffffffffffffffff168273ffffffffffffffffffffffffffffffffffffffff167f8c5be1e5ebec7d5bd14f71427d1e84f3dd0314c0f7b2291e5b200ac8c7c3b92560405160405180910390a45b505b836004600085815260200190815260200160002060006101000a81548173ffffffffffffffffffffffffffffffffffffffff021916908373ffffffffffffffffffffffffffffffffffffffff16021790555050505050565b611780838383611a00565b61183457600073ffffffffffffffffffffffffffffffffffffffff168373ffffffffffffffffffffffffffffffffffffffff16036117f557806040517f7e2732890000000000000000000000000000000000000000000000000000000081526004016117ec9190611ff6565b60405180910390fd5b81816040517f177e802f00000000000000000000000000000000000000000000000000000000815260040161182b92919061285e565b60405180910390fd5b505050565b60606000600161184884611ac1565b01905060008167ffffffffffffffff81111561186757611866611e60565b5b6040519080825280601f01601f1916602001820160405280156118995781602001600182028036833780820191505090505b509050600082602001820190505b6001156118fc578080600190039150507f3031323334353637383961626364656600000000000000000000000000000000600a86061a8153600a85816118f0576118ef612887565b5b049450600085036118a7575b819350505050919050565b600073ffffffffffffffffffffffffffffffffffffffff168273ffffffffffffffffffffffffffffffffffffffff16036119795760006040517f64a0ae920000000000000000000000000000000000000000000000000000000081526004016119709190612020565b60405180910390fd5b600061198783836000610e65565b9050600073ffffffffffffffffffffffffffffffffffffffff168173ffffffffffffffffffffffffffffffffffffffff16146119fb5760006040517f73c6ac6e0000000000000000000000000000000000000000000000000000000081526004016119f29190612020565b60405180910390fd5b505050565b60008073ffffffffffffffffffffffffffffffffffffffff168373ffffffffffffffffffffffffffffffffffffffff1614158015611ab857508273ffffffffffffffffffffffffffffffffffffffff168473ffffffffffffffffffffffffffffffffffffffff161480611a795750611a788484610a03565b5b80611ab757508273ffffffffffffffffffffffffffffffffffffffff16611a9f83610e0e565b73ffffffffffffffffffffffffffffffffffffffff16145b5b90509392505050565b600080600090507a184f03e93ff9f4daa797ed6e38ed64bf6a1f0100000000000000008310611b1f577a184f03e93ff9f4daa797ed6e38ed64bf6a1f0100000000000000008381611b1557611b14612887565b5b0492506040810190505b6d04ee2d6d415b85acef81000000008310611b5c576d04ee2d6d415b85acef81000000008381611b5257611b51612887565b5b0492506020810190505b662386f26fc100008310611b8b57662386f26fc100008381611b8157611b80612887565b5b0492506010810190505b6305f5e1008310611bb4576305f5e1008381611baa57611ba9612887565b5b0492506008810190505b6127108310611bd9576127108381611bcf57611bce612887565b5b0492506004810190505b60648310611bfc5760648381611bf257611bf1612887565b5b0492506002810190505b600a8310611c0b576001810190505b80915050919050565b6000604051905090565b600080fd5b600080fd5b60007fffffffff0000000000000000000000000000000000000000000000000000000082169050919050565b611c5d81611c28565b8114611c6857600080fd5b50565b600081359050611c7a81611c54565b92915050565b600060208284031215611c9657611c95611c1e565b5b6000611ca484828501611c6b565b91505092915050565b60008115159050919050565b611cc281611cad565b82525050565b6000602082019050611cdd6000830184611cb9565b92915050565b6000819050919050565b611cf681611ce3565b8114611d0157600080fd5b50565b600081359050611d1381611ced565b92915050565b600060208284031215611d2f57611d2e611c1e565b5b6000611d3d84828501611d04565b91505092915050565b600081519050919050565b600082825260208201905092915050565b60005b83811015611d80578082015181840152602081019050611d65565b60008484015250505050565b6000601f19601f8301169050919050565b6000611da882611d46565b611db28185611d51565b9350611dc2818560208601611d62565b611dcb81611d8c565b840191505092915050565b60006020820190508181036000830152611df08184611d9d565b905092915050565b600073ffffffffffffffffffffffffffffffffffffffff82169050919050565b6000611e2382611df8565b9050919050565b611e3381611e18565b8114611e3e57600080fd5b50565b600081359050611e5081611e2a565b92915050565b600080fd5b600080fd5b7f4e487b7100000000000000000000000000000000000000000000000000000000600052604160045260246000fd5b611e9882611d8c565b810181811067ffffffffffffffff82111715611eb757611eb6611e60565b5b80604052505050565b6000611eca611c14565b9050611ed68282611e8f565b919050565b600067ffffffffffffffff821115611ef657611ef5611e60565b5b611eff82611d8c565b9050602081019050919050565b82818337600083830152505050565b6000611f2e611f2984611edb565b611ec0565b905082815260208101848484011115611f4a57611f49611e5b565b5b611f55848285611f0c565b509392505050565b600082601f830112611f7257611f71611e56565b5b8135611f82848260208601611f1b565b91505092915050565b60008060408385031215611fa257611fa1611c1e565b5b6000611fb085828601611e41565b925050602083013567ffffffffffffffff811115611fd157611fd0611c23565b5b611fdd85828601611f5d565b9150509250929050565b611ff081611ce3565b82525050565b600060208201905061200b6000830184611fe7565b92915050565b61201a81611e18565b82525050565b60006020820190506120356000830184612011565b92915050565b6000806040838503121561205257612051611c1e565b5b600061206085828601611e41565b925050602061207185828601611d04565b9150509250929050565b60008060006060848603121561209457612093611c1e565b5b60006120a286828701611e41565b93505060206120b386828701611e41565b92505060406120c486828701611d04565b9150509250925092565b6000602082840312156120e4576120e3611c1e565b5b60006120f284828501611e41565b91505092915050565b61210481611cad565b811461210f57600080fd5b50565b600081359050612121816120fb565b92915050565b6000806040838503121561213e5761213d611c1e565b5b600061214c85828601611e41565b925050602061215d85828601612112565b9150509250929050565b600067ffffffffffffffff82111561218257612181611e60565b5b61218b82611d8c565b9050602081019050919050565b60006121ab6121a684612167565b611ec0565b9050828152602081018484840111156121c7576121c6611e5b565b5b6121d2848285611f0c565b509392505050565b600082601f8301126121ef576121ee611e56565b5b81356121ff848260208601612198565b91505092915050565b6000806000806080858703121561222257612221611c1e565b5b600061223087828801611e41565b945050602061224187828801611e41565b935050604061225287828801611d04565b925050606085013567ffffffffffffffff81111561227357612272611c23565b5b61227f878288016121da565b91505092959194509250565b600080604083850312156122a2576122a1611c1e565b5b60006122b085828601611e41565b92505060206122c185828601611e41565b9150509250929050565b7f4e487b7100000000000000000000000000000000000000000000000000000000600052602260045260246000fd5b6000600282049050600182168061231257607f821691505b602082108103612325576123246122cb565b5b50919050565b7f496e76616c696420616464726573730000000000000000000000000000000000600082015250565b6000612361600f83611d51565b915061236c8261232b565b602082019050919050565b6000602082019050818103600083015261239081612354565b9050919050565b7f456d707479205552490000000000000000000000000000000000000000000000600082015250565b60006123cd600983611d51565b91506123d882612397565b602082019050919050565b600060208201905081810360008301526123fc816123c0565b9050919050565b7f4e487b7100000000000000000000000000000000000000000000000000000000600052601160045260246000fd5b600061243d82611ce3565b915061244883611ce3565b92508282019050808211156124605761245f612403565b5b92915050565b600060608201905061247b6000830186612011565b6124886020830185611fe7565b6124956040830184612011565b949350505050565b600081905092915050565b60006124b382611d46565b6124bd818561249d565b93506124cd818560208601611d62565b80840191505092915050565b60006124e582856124a8565b91506124f182846124a8565b91508190509392505050565b60008190508160005260206000209050919050565b60006020601f8301049050919050565b600082821b905092915050565b60006008830261255f7fffffffffffffffffffffffffffffffffffffffffffffffffffffffffffffffff82612522565b6125698683612522565b95508019841693508086168417925050509392505050565b6000819050919050565b60006125a66125a161259c84611ce3565b612581565b611ce3565b9050919050565b6000819050919050565b6125c08361258b565b6125d46125cc826125ad565b84845461252f565b825550505050565b600090565b6125e96125dc565b6125f48184846125b7565b505050565b5b818110156126185761260d6000826125e1565b6001810190506125fa565b5050565b601f82111561265d5761262e816124fd565b61263784612512565b81016020851015612646578190505b61265a61265285612512565b8301826125f9565b50505b505050565b600082821c905092915050565b600061268060001984600802612662565b1980831691505092915050565b6000612699838361266f565b9150826002028217905092915050565b6126b282611d46565b67ffffffffffffffff8111156126cb576126ca611e60565b5b6126d582546122fa565b6126e082828561261c565b600060209050601f8311600181146127135760008415612701578287015190505b61270b858261268d565b865550612773565b601f198416612721866124fd565b60005b8281101561274957848901518255600182019150602085019450602081019050612724565b868310156127665784890151612762601f89168261266f565b8355505b6001600288020188555050505b505050505050565b600081519050919050565b600082825260208201905092915050565b60006127a28261277b565b6127ac8185612786565b93506127bc818560208601611d62565b6127c581611d8c565b840191505092915050565b60006080820190506127e56000830187612011565b6127f26020830186612011565b6127ff6040830185611fe7565b81810360608301526128118184612797565b905095945050505050565b60008151905061282b81611c54565b92915050565b60006020828403121561284757612846611c1e565b5b60006128558482850161281c565b91505092915050565b60006040820190506128736000830185612011565b6128806020830184611fe7565b9392505050565b7f4e487b7100000000000000000000000000000000000000000000000000000000600052601260045260246000fdfea2646970667358221220833279c35c75e5d2860f5156016b941fe802fce24d420fd62047fd578b7dc58964736f6c63430008140033",
  "linkReferences": {},
  "deployedLinkReferences": {}
}